:10000000186E0020B93E0000292B01008D3E000033
:100010008D3E00008D3E00008D3E00008D3E0000B4
:10002000000000000000000000000000114000007F
:100030008D3E0000000000006D3F00008D3E00007E
:100040004942000049420000494200004942000084
:100050004942000049420000494200004942000074
:100060004942000049420000494200004942000064
:100070004942000049420000494200004942000054
:100080004942000049420000494200004942000044
:100090004942000049420000494200004942000034
:1000A0004942000049420000494200004942000024
:1000B0004942000049420000494200004942000014
:1000C0004942000049420000494200004942000004
:1000D00049420000494200004942000049420000F4
:1000E00049420000494200004942000049420000E4
:1000F00049420000494200004942000049420000D4
:1001000049420000494200004942000049420000C3
:1001100049420000494200004942000049420000B3
:1001200049420000494200004942000049420000A3
:100130004942000049420000494200004942000093
:100140004942000049420000494200004942000083
:040150004942000020
:04015400FFFFFFFFAB
:1001580053B94AB9002908BF00281CBF4FF0FF3126
:100168004FF0FF3000F00CB8ADF1080C6DE904CE8B
:1001780000F008F8DDF804E0DDE9022304B0704778
:10018800704700BF2DE9F04786468C460846089E12
:10019800154674461946002B40F0C1808542B2FAD4
:1001A80082F245D94AB1C2F1200300FA02FC954017
:1001B80094402EFA03F343EA0C0C4FEA154EA8B20A
:1001C800230CBCFBFEF80EFB18CC08FB00F943EA35
:1001D8000C43994528D9EB1808F1FF3704D2994503
:1001E80002D9A8F102072B44A3EB0903A4B2B3FB7D
:1001F800FEFC0EFB1C330CFB00F044EA0344A04257
:1002080014D92C190CF1FF3304D2A04202D9ACF155
:1002180002032C44241A43EA07401EB1D4400023A9
:1002280034607360BDE8F0874746DDE76346F1E771
:1002380092BB431B01214FEA154EAFB2200CB3FB12
:10024800FEFC0EFB1C330CFB07F840EA0343984501
:1002580061D9EB180CF1FF3004D2984502D9ACF102
:1002680002002B44A3EB0803A4B2B3FBFEFC0EFB75
:100278001C330CFB07F744EA0344A7424DD92C1959
:100288000CF1FF3304D2A74202D9ACF102032C448B
:10029800E41B43EA0040C0E7C2F1200395409440C4
:1002A80020FA03F12EFA03F34FEA154E9040AFB24D
:1002B8000343B1FBFEFC0EFB1C10190C0CFB07F8EA
:1002C80041EA0041884522D969180CF1FF3004D26F
:1002D800884502D9ACF102002944A1EB08019BB280
:1002E800B1FBFEFC0EFB1C110CFB07F743EA0143B4
:1002F8009F420ED9EB180CF1FF3104D29F4202D96C
:10030800ACF102012B44DB1B41EA004193E7604654
:10031800E3E76146F7E76046A4E76346B8E7834248
:1003280006D916B9002108467CE7C6E900E0F9E7D6
:10033800B3FA83F78FB9834201D3724508D8BEEB6D
:10034800020460EB030301209C461EB9002169E703
:100358003846FAE7C6E9004CF8E7C7F1200CBB407D
:100368000EFA07F522FA0CF42EFA0CF1BA401C43E7
:1003780020FA0CF3B8404FEA144901431FFA84FEEF
:10038800B3FBF9F809FB18300B0C08FB0EFA43EA2B
:1003980000439A4540D9E31808F1FF3004D29A4542
:1003A80002D9A8F102002344A3EB0A0389B2B3FBE4
:1003B800F9F809FB183308FB0EFE41EA03418E45A4
:1003C8002CD9611808F1FF3304D28E4502D9A8F15F
:1003D8000203214443EA0040A1EB0E01A0FB02986E
:1003E8004145CE46434602D306D14D4504D2013895
:1003F800B9EB020E68EB0403002EA7D0B5EB0E0292
:1004080061EB030101FA0CFC22FA07F3F9404CEA0C
:100418000303C6E9003199E74046C5E74346D9E7F3
:1004280010F8012B11F8013B012A28BF9A42F7D096
:10043800D01A7047034611F8012B03F8012B002A44
:10044800F9D17047034613F8012B002AFBD1181A7B
:100458000138704700000000F7B55A4DD5F86431EF
:10046800996811F001011AD140F6034001AA04F07D
:10047800EDFF0446002840F0A2800198C3681B786D
:100488005BB905F1D403D3E8AF2F02F00902D3E832
:10049800EF1FC3E8E42F002CF9D10AF015F9002169
:1004A80041F2030001AA04F0D1FF0446002840F0FD
:1004B8008680019B444EDA68D2F80100D2F8051014
:1004C80003C618460AF000F9214641F2010001AAC4
:1004D80004F0BCFF0446002871D10198C3685A781B
:1004E80085F870205A88A5F872201A7985F8712045
:1004F800B3F80720A5F87420B3F80530A5F87630CE
:100508000AF0E2F8214641F2020001AA04F09EFF37
:100518000446002853D1019FFA68531C41323446DF
:1005280018685968083303C493422646F7D1274808
:1005380012F0A0FB38460AF0C7F806F027F8044680
:1005480000283CD195F88A309A0632D5072140F622
:10055800334004F0DBFE0646002800F04381072103
:100568000C3015F030FC452303700623C0F8024018
:100578008471447004712246C370314640F633409A
:1005880004F064FF0446D0B9012140F6314004F07C
:10059800BDFE0646002800F0258101210C3015F02B
:1005A80021FC2246314640F6314004F04FFF044614
:1005B80028B995F87C305B060AD46FF012042046FF
:1005C80003B0F0BD0000002078000020800000206B
:1005D800002142F2030001AA04F038FF0446002873
:1005E800EDD1019BB64EDA68D2F80100D2F80510B9
:1005F80003C618460AF068F8214642F2020001AA2A
:1006080004F024FF04460028D9D1019CE368B3F81C
:10061800012091B249B1D97839B1A5F80421DA7825
:10062800114606F1280017F078F920460AF04CF830
:1006380095F87C6016F0200618D1022140F66D402E
:1006480004F064FE0446002800F0CC8002210C303F
:1006580015F0B9FB0123214603704670324640F677
:100668006D4004F0F3FE04460028A8D195F89C30AC
:100678001F0712D5002142F21C0001AA04F0E6FE71
:10068800044600289BD10198C368D3F80120D3F809
:100698000530C5E938230AF017F895F8D8309E06D2
:1006A80024D568460DF1020112F0CEFD044600285B
:1006B80085D1042142F2240004F028FE06460028D1
:1006C80000F0908004210C3015F07DFBBDF800305F
:1006D80022460380BDF802303146438042F22400AE
:1006E80004F0B4FE044600287FF469AF95F8D830CA
:1006F8005C0610D5002142F22A0001AA04F0A6FEE9
:10070800044600287FF45BAF0198C3685B7885F8DE
:10071800203109F0D9FF082142F2010004F0F6FD6A
:10072800044600285ED008210C3015F04CFB95F8E3
:10073800D81040F2022311F0400F08BF03230246ED
:1007480088074CBF43F02C0043F00C0095F8D930D3
:100758008F0648BF40F0400013F0090F95F8A2300B
:1007680018BF40F4006003F00603CE0748BF40F00E
:100778001000062B08BF40F4C070002112F0D9FB0E
:100788002146002242F2010004F060FE04460028DF
:100798007FF415AF95F87C30B5F80411980624D489
:1007A800C9B941F2050001AA04F050FE0446002828
:1007B8007FF405AFB5F80431019C4BB9E368B3F891
:1007C8000120A5F804219A883E48114617F0A5F89B
:1007D800204609F079FF082140F6014004F096FD13
:1007E800044638B96FF06804E9E60029F3D16FF0E0
:1007F8000404E4E608210C3015F0E5FA95F8D83041
:100808000246D90747BF2CA1D1E900014FF000519A
:100818002D4812F08EFB2146002240F6014004F0DC
:1008280015FE044600287FF4CAAE014601AA4FF619
:10083800014004F00BFE044620BB019809F044FF78
:1008480021464FF6024001AA04F000FE0446C8B94A
:100858000198C368B3F80130A5F8C13009F034FF36
:1008680095F8C1305B070DD521464FF6034001AA24
:1008780004F0ECFD30B90198C3685B7885F8C030A6
:1008880009F022FF12F0F6FE044600287FF497AE26
:1008980006F09EFD044600287FF491AE0B48C3790C
:1008A800002B3FF48CAE0821D43012F0B5FA05F0D5
:1008B80043F884E6AFF300809088000200800020AF
:1008C800D800002008010020108800020000002045
:1008D8002DE9F0472DED028B04469FED498B4A4EDA
:1008E80084B04FF02003EFF3118783F31288BFF32E
:1008F8006F8FD4F8C8508DB9022104F1E00017F0C9
:100908001CF8002843D100238DED008B3946029353
:1009180004F1D0023D480EF075FDE2E7D4F8CC2092
:100928002B689542C4F8C83008BFC4F8CC30D4F856
:10093800E03043F00203C4F8E030EB6823F004032E
:1009480043F00103EB606B6887F31188BFF36F8F87
:10095800284698474FF02003EFF3118983F3128854
:10096800BFF36F8FEB68990723F0010219D4EA608F
:10097800D4F8E03023F00203C4F8E03089F311889A
:10098800BFF36F8FDB05ACD40EF01CFCA9E704F1B4
:10099800D80500220121284617F0D5F90028F8D1FA
:1009A800B1E7306823F00303EB600028E0D00027AC
:1009B800BA46D0F800800028DAD04268014695424D
:1009C8000BD1016897B972683160824200D17160B9
:1009D80040F808AB0DF0F6FF3946B8F1000F0BD020
:1009E800D8F8002040460F469046E4E73960726820
:1009F800824208BF7760EBE74246F3E7AFF3008037
:100A0800FFFFFFFFFFFFFFFF343B0020DD3D00201D
:100A180001480EF0B7B800BFC001002007B517F0B5
:100A2800CFF94FF47A72A0FB020302FB0131C00B2D
:100A3800074A40EA4140106000234FF4004205484D
:100A4800CDE900230EF0BCFE002003B05DF804FBE6
:100A580040260020E0080020014B187800F00CB96F
:100A6800A43C0020044B1A78824202D01870FFF789
:100A7800F3BF0020704700BFA43C002008B517F062
:100A88009FF94FF47A72A0FB020302FB0131C00BFD
:100A9800044A40EA41401060BDE808400020FFF7E2
:100AA800E1BF00BF4026002008B517F089F94FF4D0
:100AB8007A72A0FB020302FB0131084AC30B1268D9
:100AC80043EA41439B1A47F23052934204DDBDE8A2
:100AD80008400120FFF7C6BF08BD00BF4026002020
:100AE800014B1878704700BFA43C0020F8B50446B5
:100AF80010B900252846F8BD0378002BF9D00F4E11
:100B08000F4FBE420FD30D4EBE42F2D2306816F0E0
:100B180087FD30B1356821462868FFF781FC002839
:100B2800E8D00436F0E7306816F07AFD18B1356879
:100B38002B68A342DED00436E3E700BF18B20100F9
:100B480034B2010030B5184C8DB000220023204685
:100B580003A90DF0F3FD08B10DB030BD0398DDE930
:100B6800041500F055F80028EFDBFF238DF8183046
:100B7800B5FA85F35B0907908DF8203017F020F956
:100B88004FF47A72A0FB020302FB0131C00B40EA6A
:100B98004140C90B8DE8030006ABCDE90A010FCB34
:100BA80000F084F8D1E700BF5C0A00201FB583F08D
:100BB8000103CDE9011203930022002301A904488F
:100BC8000DF064FD03480DF0DDFF05B05DF804FB92
:100BD8005C0A00204426002010B5044678B1094973
:100BE800094816F01DFFA36820461B680749984767
:100BF800A3689B680BB120469847002010BD6FF092
:100C08001500FBE74D0B000044260020B50B000043
:100C1800122303FB0011592905D8044B53F821006E
:100C280008B1013870476FF0150070475C8B010000
:100C3800F8B507460C460E4D0E4E761BC6F3C70692
:100C480005EBC105A64201DC00200CE02A683B68E0
:100C58009A4209D13C716B6838461B68984718B1AD
:100C6800431E012BF0D9F8BD01340835EAE700BF6F
:100C7800E8A4010020A501001FB50023CDE9023337
:100C8800044B8DF80C0001A801930FF078F905B01A
:100C98005DF804FBC48C01000268034B9A420CBF48
:100CA80008300020704700BFC48C010084B030B504
:100CB80089B00CAC84E80F0000230193084B02AC08
:100CC8000CAD00930FCD0FC495E8030084E8030032
:100CD80068460FF054F909B0BDE8304004B07047D9
:100CE800C88C01000268034B9A420CBF08300020F0
:100CF800704700BFC88C01001FB50023CDE902333F
:100D0800044B8DF80C0001A801930FF038F905B0D9
:100D18005DF804FBD48C010082B038B504A90546FF
:100D280081E80C0011480DF06FFA0446A0B16B6819
:100D3800012B0CD0022B05D0A3B9BDE8384002B076
:100D48000FF035B90FF03AF900282046F5DCBDE878
:100D5800384002B00FF024B96FF00400BDE8384005
:100D680002B070476FF08500F8E700BF5F9C010094
:100D780082B010B502A9044681E80C000B480DF0BA
:100D880043FA78B16368022B04D00020BDE8104014
:100D980002B070470FF012F90028CCBF00200120E4
:100DA8006060F2E76FF00400F0E700BF5F9C0100AD
:100DB8000D4A52F82030013342F8203001230B4A03
:100DC800834011780B430A49DBB20978137023EA90
:100DD80001030849084A097850780B43181A18BFC4
:100DE80001205370704700BF54260020A73C002004
:100DF800A53C0020A63C0020A108002010B5114AFF
:100E080052F82030002B19DD013B42F820300E4A01
:100E18002BB901211378814023EA010313700B4891
:100E28000B4B047810780B4A5978127820EA0400A2
:100E380010435870401A18BF012010BD6FF01500FC
:100E4800FBE700BF54260020A73C0020A53C00205B
:100E5800A1080020A63C00200123044A8340127800
:100E6800D8B213401B1A584258417047A73C00207B
:100E780010B5084B084A1870084B51781C78084B75
:100E88001B7823EA040318435070401A18BF012046
:100E980010BD00BFA63C0020A1080020A53C0020F2
:100EA800A73C00200022074B1A70074B074A197805
:100EB800074B50781B7823EA0103181A18BF012042
:100EC80053707047A63C0020A53C0020A1080020D4
:100ED800A73C0020A0F1E003072B03D82030C0B2C4
:100EE800FFF766BF0622064B13F8011F19B1013A36
:100EF800FAD10020704718700028F8D0F9E700BF31
:100F0800A3080020A0F1E003072B10B405D8203077
:100F18005DF8044BC0B2FFF771BF00231946064ABB
:100F280012F8014F0133A04208BF1170062BF7D108
:100F380000205DF8044B7047A3080020A0F1E003EF
:100F4800072B03D82030C0B2FFF786BF0023064A1C
:100F580012F8011F884204D00133062BF8D1002073
:100F680070470120704700BFA30800200022024BF1
:100F78001A605A60704700BFA2080020002310B50D
:100F8800074901EB4302B2F8014024B10133062BB3
:100F9800F7D1002010BDA2F801000028F6D0F8E72C
:100FA800940800200023194630B5074C04EB43028F
:100FB800B2F801500133854204BF51709170062B7D
:100FC800F4D1002030BD00BF940800200022024B5D
:100FD8001A605A609A607047950800200023074AF3
:100FE80002EB4301B1F80110814204D00133062B12
:100FF800F6D1002070470120704700BF94080020F8
:1010080000487047A1080020004870479408002055
:1010180008B5094B1B7823B1012B06D06FF085006A
:1010280008BDBDE808400FF08ABAFFF7E9FFBDE840
:101038000840013000F054BD7426002008B5094B63
:101048001B7823B1012B06D06FF0850008BDBDE8E1
:1010580008400FF07CBAFFF7D7FFBDE80840013021
:1010680000F064BD7426002001220249024802F003
:101078004BBA00BFA83C0020949C010070B5002525
:101088000646056000F002FB044680B100F018FE39
:10109800022806D000F014FC01237060337030463B
:1010A80070BD064B1B78012BF4D02846F5E700F0FD
:1010B80007FE0228EED123462046EEE7A83C002092
:1010C80073B502F015FB0C4802F09AFA044678B999
:1010D8006D460A490A4816F0E7FC0A4E0A4802F02B
:1010E80039FA2846FFF7CAFF95E8030086E80300A7
:1010F800204602B070BD00BFD00100207110000072
:10110800F80C002074260020A89C010082B00DF184
:10111800080C0CE9030019469DF8003010461BB175
:10112800012B05D0054A00E0054A02B00EF026BCA6
:10113800019B044A02B00EF021BC00BFBD9C010017
:10114800B29C0100B69C010030B589B001AD0F4CCE
:101158002846FFF793FF94E80C0095E803000EF08B
:10116800F7FF80B90FF01BF895E803000A2305AADA
:1011780084E80300FFF7CAFF94E8030003AB83E8A1
:10118800030000F041F809B030BD00BF742600200C
:1011980008B5074B1A78824208D018704FF4F0123D
:1011A800002304480DF0C8FDFFF7CEFF002008BD5E
:1011B800A83C0020F80C0020034B1878B0FA80F007
:1011C8004009FFF7E5BF00BFA83C002070B50C46FA
:1011D80015460B4900221E4610F029F908B90020CF
:1011E80070BD012C08D1224630460649A847002880
:1011F800F6DDFFF7A9FFF2E76FF01500F0E700BF93
:101208009E9C0100A83C00207FB56B46002283E825
:101218000300039293E80300054A06AB03E90300C1
:1012280002A802920EF0ABFE07B05DF804FB00BF07
:101238005C8D01001FB528BB19B9002005B05DF809
:1012480004FB12490B6843F001029A420A60F4D089
:101258004FF48073ADF8003016F0B2FD4FF47A7297
:10126800A0FB020302FB0131C00B40EA4140C90B5D
:10127800CDE9020104AB13E90F0005B05DF804EBFA
:1012880000F078B86FF01500D8E700BFB427002049
:101298002DE9F04F1F464FF46A7315460C224B4355
:1012A80002FB0533204A8DB01A440E4607CADDE911
:1012B80016AB05AC84E807000EF05FFE804668B305
:1012C8000598CDE90865CDE90AAB0EF056FE8368AE
:1012D800D3F80490B9F1000F09D00CAB13E903005F
:1012E800DDE908238DE803002046C84798B9D8F8F7
:1012F80008301B78022B13D8CDE90865CDE90AAB75
:101308000CAB029713E9030032468DE803002B4625
:1013180020460EF0ADFF0DB0BDE8F08F0120FAE7D2
:101328006FF08500F7E700BF688D010073B50F4BBC
:1013380006460C4615461AB10D4A126843F8212094
:10134800002053F824100EF083FF58B1DDE906237E
:101358000021CDE9002330462B462246FFF798FFAF
:10136800002801DD6FF0850002B070BD7C260020EA
:10137800B427002010B58AB06C4684E80F0000231B
:101388000593064B049394E80F000AAC04E90F0098
:1013980004A80EF0F4FD0AB010BD00BF10910100C2
:1013A80084B030B589B00CAC84E80F0000230193F9
:1013B800084B02AC0CAD00930FCD0FC495E80300A9
:1013C80084E8030068460EF0DAFD09B0BDE8304055
:1013D80004B07047189101000268034B9A420CBF91
:1013E80008300020704700BF189101007FB56B4698
:1013F800002283E80300039293E80300054A06AB42
:1014080003E9030002A802920EF0B9FD07B05DF8E7
:1014180004FB00BF1C9101001621074B82B01A780B
:10142800064B8DF8002002FB0133019302AB13E950
:10143800030002B0FFF7DABFA93C0020AA3C002055
:1014480001220249024802F05FB800BFA93C00200F
:10145800519D010070B503788AB004460E4607AD69
:10146800032B20D8DFE803F002191B1D1149284679
:10147800FEF7E0FF059563781E210493A3783046B4
:101488000393E3780C4A02932379019363790093D9
:10149800A3790EF073FA0AB070BD0849E7E7084966
:1014A800E5E70849E3E70A212846074A0EF066FA05
:1014B800E0E700BF649D01008D9D01006B9D010068
:1014C800729D01007C9D0100869D01002DE9F0417F
:1014D8008AB00D4616461F496A4604461F460FF055
:1014E800A6FF08B30098F8B10A2201A90EF09AFAEB
:1014F800019B1B785BBB162D29D1C4B2042C26D8BE
:101508006C43DFF85C802A46384608EB0401B04794
:10151800002806DD04F10F0002A94044FFF79AFFF6
:1015280000200AB0BDE8F0816A4620460A490FF05B
:101538007EFF0028F4D0009B002BF1D1012D06D1AD
:101548002A4638460549B04700EAE070E9E76FF0F7
:101558001500E6E7B09D0100559D0100A93C00205B
:10156800AA3C002010B5044690B012F08BFB6946E7
:10157800FFF770FF204608A905F07AFD9DF8213095
:10158800012B14D10B480DF0FDFA204612F07AFB1E
:10159800094B0F221978162313FB01230749072249
:1015A800194416F06FFF10B905480DF0EBFA10B0AA
:1015B80010BD00BF48020020A93C0020AA3C002022
:1015C8005802002008B5084B0F221978162313FB80
:1015D8000123064807220649184416F053FFB0FABB
:1015E80080F0400908BD00BFA93C0020AA3C0020AB
:1015F80080A001002DE9F04105464FF016080C4681
:1016080015FB08F78EB0204606A9FFF723FF0D4EFD
:10161800216807F10F02B1509319A2880A499A80EC
:10162800A27901A89A712A460EF0D4F94246F11916
:1016380001A801F069FF05480DF0A4FA0EB0BDE855
:10164800F08100BFAA3C0020B99D0100580200208B
:1016580038B50F23162414FB00340A4B05461C44E6
:1016680007222046084916F00DFF48B12146002000
:1016780004F0B6F82846BDE838400349FFF7BABF7A
:1016880038BD00BFAA3C002080A0010010B5124B55
:1016980016241A780F2314FB0234104B88B01C440C
:1016A800072220460E4916F0EDFE10B9002008B0BA
:1016B80010BD2146002005F089FC04460028F5D01D
:1016C800694605F0D5FC204612F009FA9DF81C0081
:1016D800831E58425841EAE7A93C0020AA3C002052
:1016E80080A00100F0B58DB0FFF76CFF98B9FFF747
:1016F800CDFF80F001035B00DBB2214D2A7803EBBC
:101708000213112B09DC022B2DD0102B23D000241F
:1017180020460DB0F0BD0223EFE7202B1BD0122B83
:10172800F5D104F069FE002304462B700028EFD1A0
:10173800144F02AE0FCF0FC63B6804223360234616
:101748001149009402A804F025FE04460028DFD1C0
:1017580002232B70DBE704F04FFE002304462B70B6
:101768000028D4D0D4E7074E07AC0FCE0FC4336897
:101778000422236000230449009307A8E3E700BF7D
:10178800183D0020B08A01003891010030B591B0B1
:10179800054612F077FA69460446FFF75BFE2846CD
:1017A80008A905F065FC9DF82130012B05D1FFF74C
:1017B80009FF214618B904F013F811B030BD034BE6
:1017C8001878FFF717FFFFF78DFFF6E7A93C002011
:1017D80030B591B00D4608A9044605F049FC9DF8BE
:1017E8002130012B0BD1204612F04CFA6946FFF745
:1017F80031FE00220E4B1A701DB1FFF773FF11B0B6
:1018080030BDFFF76FFF204612F03CFA094B0F225C
:101818001978162313FB012307490722194416F0E8
:1018280031FE0028EBD105480DF0ACF9E7E700BF21
:10183800183D0020A93C0020AA3C002058020020A6
:1018480010B5002004F08AF80446D8B901F050FF1A
:101858000D4801F0D5FE0446A0B90C490C4816F015
:1018680023F90C4801F076FE0B4801F073FE0B4893
:1018780005F086FB0A4805F07DFD0A4805F094FD51
:10188800FFF730FF204610BD300200204914000049
:10189800280D0020C99D0100CD9D010014020020E3
:1018A800F8010020E801002008B5044B1878FFF77C
:1018B800CFFEBDE80840FFF715BF00BFA93C0020D8
:1018C800014B1878704700BFA93C0020042808B5D0
:1018D80010D80A4B1A7882420AD04FF4F0121870C6
:1018E800002307480DF028FAFFF7FCFEFFF794FDE8
:1018F800002008BD6FF02100FBE700BFA93C0020D5
:10190800280D0020054B187805230130B0FBF3F3B0
:1019180003EB8303C01AC0B2FFF7D8BFA93C00206D
:10192800054B187805230430B0FBF3F303EB83036E
:10193800C01AC0B2FFF7CABFA93C0020042838B5B6
:101948001ED80F23162414FB00340F4B07221C4407
:1019580020460E4916F096FD18B96FF0120420467D
:1019680038BD2146002005F031FB05460028F4D09B
:10197800132112F0F3F80446284612F0B0F8EEE707
:101988006FF02104EBE700BFAA3C002080A0010013
:10199800044B0F221978162313FB0123024818441D
:1019A800704700BFA93C0020AA3C00201FB54D2469
:1019B8000294044C0194BDF81840009413F059FAAD
:1019C80004B010BDF09D010007B5064B4FF44072FE
:1019D80000930549052305480DF0DAF8002003B007
:1019E8005DF804FB58910100E03D0020580D0020EF
:1019F80010B5FFF7CDFF07220549044616F042FD52
:101A080028B12146BDE81040002005F0DFBA10BD1E
:101A180080A00100F0B5164E164F89B000220023B1
:101A2800694630460CF08AFE054608B109B0F0BD9B
:101A3800FFF7DEFF04460028F8D01822294602A83E
:101A480016F07BFD082320460DEB03010397CDF824
:101A580010D0ADF8143007F007FB013003D1022194
:101A6800204612F0BAF8204612F039F8D6E700BF3F
:101A78002C0A0020C49101002DE9F041164F8AB0CC
:101A8800DFF8588001AE00220023314638460CF0BA
:101A980055FE054610B10AB0BDE8F081FFF7A8FF72
:101AA80004460028F7D01822294604A816F045FD58
:101AB8000C23204604A9CDE90586ADF81C3007F0B3
:101AC800D3FA013003D10221204612F086F82046CD
:101AD80012F005F8D7E700BFFC09002014920100B6
:101AE80037B5054640F6CD42014600230C480CF0B8
:101AF800CDFD044678B110F10B0F09D10022002367
:101B0800694607480CF01AFE2846FFF7E9FF044625
:101B1800204603B030BD0349034815F0AEFFF7E790
:101B28002C0A002078020020580D002030B5054608
:101B380085B040F6CD42014600230D480CF0A6FDC5
:101B4800044678B110F10B0F09D10022002301A936
:101B580007480CF0F3FD2846FFF7E8FF0446204647
:101B680005B030BD0349044815F087FFF7E700BF0B
:101B7800FC09002068020020580D00201FB5002332
:101B8800CDE90233044B8DF80C0001A801930EF047
:101B9800F6F905B05DF804FB9092010008B500F075
:101BA80007F9BDE80840014915F067BF3003002078
:101BB80013B50F4B1C68A3682D212046DB68984796
:101BC80098B9A3686A462D2120461B69984760B9D1
:101BD800084C00982378834207D0C0B2207001F0E7
:101BE8006BFC10B92078FFF7C9FF02B010BD00BF29
:101BF800B82700201A3D002007B5094B186815F0D2
:101C08000FFD48B14FF4F01200230648CDE9002338
:101C1800002200230DF0D4FD03B05DF804FB00BFE3
:101C2800B82700201809002008B5FFF735F810B9C3
:101C38006FF0850008BDFEF753FF38B10138C0B218
:101C48000128F5D8034816F002F901E0FFF7D4FFA0
:101C58000020EFE71809002008B508480CF0D4FA6E
:101C6800074A106010B96FF0120008BD15F0D8FCD3
:101C78000028F8D0FFF7C0FF0020F6E77C9E01009F
:101C8800B827002008B5044801F040F9002818BF1B
:101C98006FF0150008BD00BFA51C00000A2804D07D
:101CA800024B187002480CF06DBF7047B90800204D
:101CB80040030020014B1878704700BFB908002086
:101CC800084B01201B780B2B0AD8984010F4CD6FD5
:101CD80005D110F4016F0CBF0120002070470220CD
:101CE800704700BFB908002010B509480CF08CFAFD
:101CF800084C206048B14D22074B084902F04CFDC2
:101D0800206810F046FF002010BD6FF01500FBE7BB
:101D1800849E0100BC270020989201008A9E010041
:101D280038B504460D46FFF7C5FF0B280BD8DFE88A
:101D380000F01E1E0A0A1E060A0A0A0A0A1EBDE842
:101D4800384001F0ADB84FF47672002309480CF022
:101D58005FFE0948214600232A46006810F023FF49
:101D6800044610B103480CF02DFE204638BD6FF034
:101D78001204FAE78C0A0020BC27002001480CF066
:101D880021BE00BF8C0A002007B5064B4FF44072F5
:101D9800009305490A2305480CF0FAFE002003B019
:101DA8005DF804FBAC920100E0400020400E0020EA
:101DB80000487047400E002008B50448FEF70CFFA5
:101DC800002818BF6FF0850008BD00BFAC87010070
:101DD800014B1B68184700BF5003002030B585B081
:101DE80004460D4610220021684616F0A6FB022381
:101DF8008DF80230044B2A462146684601930DF0BF
:101E080075FE05B030BD00BFD91D000080B5054680
:101E18000E46174698460DF08BFA034616F0AAFBB5
:101E28000446DFF81890424649F8003039463046F3
:101E3800A84754F8090002F065F800BF0800000040
:101E48002DE9F047058B04462807904611D402294E
:101E580005F0070540F0CD8020460EF0D0FE78B1A1
:101E68000138218B042811D8DFE800F0C3106D85F4
:101E7800950001290CBF45F0100545F02005258384
:101E880088F31188BFF36F8FBDE8F08701F0070A68
:101E9800AA4500F0A6800027B9463E46A368002B55
:101EA80000F0BD8041F00801218388F31188BFF359
:101EB8006F8FA168002900F0BB800D68002900F031
:101EC800B780334652462046D1F80480C047002DDB
:101ED80076D02B6829461D46F0E701F007035A1F04
:101EE800012A1BD8002221F00701062B276889B296
:101EF800C4E9002209D13B4603E0628B01326283C8
:101F08001B68002BF9D141F00201204621830EF015
:101F180076FE00287BD041F0200177E0042B0AD11F
:101F280021F0070189B2204621830EF068FE10B126
:101F380041F020012183218B01F0070AAA4550D0E6
:101F48000027B946AAE7236921F0070141F00601F5
:101F5800062DD3F8009021832DD1B9F1000F40D080
:101F680041F00801218388F31188BFF36F8F204661
:101F78003949C84729E021F00701236941F00401E4
:101F880089B2042DD3F804902183E6D000274FF0BE
:101F9800040A3E4682E721F00701236941F0050162
:101FA80089B2052DD3F808902183D6D000274FF0A9
:101FB800050A3E4672E700274FF0060A3E466DE7DF
:101FC8002B4687E7B9F1000FD1D14FF02003EFF38B
:101FD800118883F31288BFF36F8F238B23F00803D4
:101FE8002383258BEA062ED525F01003238305F0DD
:101FF80007056669218B002EBFF66FAF002327689F
:10200800C4E9003321F0070141F001012183218B4C
:102018004FF0000901F0070AAA457FF43FAF002FEF
:102028009BD041F00801218388F31188BFF36F8F9B
:10203800002FC7D03D6839463346524620460EF039
:102048000AFE2F46F4E7AB067FF51AAF25F020030A
:10205800238305F00705FFE68B0C0100044608B54D
:102068004FF02002EFF3118382F31288BFF36F8FD2
:1020780009F0F2FE204601F033FF03480EF0EAFAB9
:1020880002F0B8F8FCE700BFEF9E010007B50DF1BC
:10209800070014F004FB114B98421CD14FF48062E6
:1020A8000F4B1049C3F8B8254FF40062C3F83C251C
:1020B8009DF8070014F0EEFA0B499DF8070014F09C
:1020C800E4FA01209DF8073098400AF017F800203C
:1020D80003B05DF804FB6FF00B00F9E70000AD0BEF
:1020E80000A002502CA0025028A10250054B03EB7F
:1020F8008000D0F8003223F0E04343F04053C0F8AA
:102108000032704700258450012208B5094B0A495E
:10211800C3F8002502230020C1F8D036FFF7E6FFF8
:102128001046FFF7E3FFC1F80427C1F8042900208F
:1021380008BD00BF0010005000400050052370B5D6
:10214800144D154E2C780134B4FBF3F303EB8303E1
:10215800E41A14F093FA114A137823B156F824308C
:10216800C01A072814D94FF05023D3F8141141B1DD
:102178000021C3F81411D3F814312C700CB90123C1
:1021880013702C7814F07AFA46F82400012070BDF8
:102198000020FCE71C3D0020C02700201B3D00203C
:1021A80048B1054B054A1B68B3FBF2F35843044B8F
:1021B80043F0010318477047DC06002040420F0037
:1021C800508B010009F072BE034A13680BB95268BC
:1021D80013600020704700BF5403002030B50C4640
:1021E8000E4985B00291D0F8AC110546CDE9003111
:1021F80000F1E0014FF0FF3320460BF0F3FD50B93A
:10220800012384F86430D5F8A83123B1204605B0FD
:10221800BDE83040184705B030BD00BF27100100A9
:1022280038B50C46114605460EF0FBFE034638B994
:10223800284604490EF0F5FE03460020236038BD09
:102248000120FBE75AA401002DE9F04F0123814644
:102258000569466885B005F56B77D7E8EF2F002A42
:1022680003D1C7E8E13F0029F7D10CBF1A46002285
:1022780040F0B180B368B16A05F5E4781C1F1046D8
:102288000EF054FF84425FD8013A00F09E80B2FA03
:1022980082F24FF00044D44072682046073222F0A0
:1022A8000302C5F86022B16A0EF040FFC5F8640267
:1022B800B36A40466343033323F0030302EB43024C
:1022C800230103EB4403093323F0030303EBC403A3
:1022D800C5F858221A440832C5F854227368C5F85C
:1022E8005C42C5F850323D4BC5E9A963316800F03E
:1022F800BDF9044630BBD9F804A0D9F81090DAE942
:10230800073409F5307B012B584608BF103C15F0FF
:10231800C5FB0023DAF8240031494FF4806201EB51
:1023280080210093584623460CF032FC09F52C70A6
:102338002C4915F075FBDAF8140083685C682CB931
:102348006FF05704002139E0013298E74B46264ADE
:10235800DAF81810A04704460028F3D1DAF8140078
:1023680083681B69002BEBD00122DAF81810984714
:1023780004460028E6D11D4B2846C5F8A8311C4B59
:10238800C5F8AC311B4B0393D5F810320293D5F83E
:102398000832CDE90083D5F86832B26AD5F8A813B7
:1023A80000F02CF904460028CCD105F1E0000BF030
:1023B800C5FD0028C5F8B0030ADB022138460EF037
:1023C80065FE204605B0BDE8F08F6FF00B04B9E755
:1023D8006FF01504B6E76FF07704F2E77D1001009F
:1023E800E0430020631001005710010001240000A1
:1023F8000B120100C510010013B5044640B10023BB
:102408000122CDE90032074BD0E909120BF09EFCFE
:10241800A36E1B6823B1E06E02B0BDE810401847F8
:1024280002B010BD5AA4010013B50446084621693C
:1024380001F56B71D1E8AF1F022910D193B1A0B19A
:102448000121CDE900311346D0E909120BF07EFCD9
:10245800074B984208BF6FF00B0002B010BD6FF039
:102468000F00FAE76FF04C00F7E76FF00100F4E7B0
:102478002EF8FFFF2DE9F74388461546066906F54D
:102488006B73D3E8AF3F022B5FD1136823B96FF0AA
:10249800150003B0BDE8F0831B78002BF7D0D6F801
:1024A800A893B9F1000F33D106F5D8774FF0FF3272
:1024B8004FF0FF3338460CF09BF930462A6801A9E3
:1024C800FFF7AEFE019C1CB938460EF0DDFDDEE7D5
:1024D80005F10803A3666B6984F86490E366E46316
:1024E80060B138460EF0D0FD21463046236E2A688A
:1024F800FFF774FE0020C8F80040CAE720222968C8
:1025080004F1400015F0E0FF38460EF0BDFDF1E79C
:1025180030460F490EF085FD04460028B7D005F176
:10252800080383666B69C063C366002380F8643060
:1025380020222968403015F0C7FF22460121304685
:1025480000F03EF80028D5D0A1E76FF00F00A0E713
:102558005AA401002DE9F04F05460E469046002783
:10256800D0F8B0A085B0AAF5AE7421463046FDF784
:1025780057FFE0B9114BA4F1400B0293DAF8103081
:102588003246CDE9008329464FF0FF335846AAF575
:10259800CE790BF027FC60B97023012203FB079367
:1025A80083F86420DAF80C300BB158469847703439
:1025B80017B105B0BDE8F08F0127D6E76D1201000D
:1025C8001FB5144690B18AB1012912D10A4B00F106
:1025D800E0010293D0F8AC31403201934FF0FF3361
:1025E800204600930BF0FEFB04B010BD6FF0150001
:1025F800FAE70020F8E700BF6D1201002DE9F0436B
:1026080087B00E46DDE90E811446DDE910251F4628
:1026180030B329B3DFF850C000F1E009002D08BF3E
:1026280065469EB9CDE9034400F5CE74204605966B
:1026380014F0A0FF03ABCDE900432A463B464146D0
:1026480048460BF0A1FC07B0BDE8F08300224146E4
:102658000E9248462A4607B0BDE8F0430BF0BEBDCF
:102668006FF01500EFE700BF5D250000F0B50E46DE
:10267800044689B000286FD001230246C3630023B3
:10268800D0F89810364F403040F80C7C42F8301F94
:10269800CDE901334FF0FF330093C36D14F028FAEE
:1026A800304A06AB92E8030083E8030018460BF0B3
:1026B8005FFA0546D8B904F134000BF03BFA054639
:1026C800A8B93946284805AA14F0EEF9054670B9A4
:1026D800059B9A6872B10C33D4F89400C4F8A03002
:1026E8000EF0F1FDC4F8D40030B96FF00B052846A0
:1026F80009B0F0BD0346EFE7D4F894000EF0E3FD0F
:10270800C4F8D8000028F0D0D4F88C30D4F8A01041
:10271800C4F8A8300423C4F8AC30C4F8C430022389
:10272800A362124BB4F89420D4F8D470C4F8B8104B
:10273800C4F8D010D4F89010236204F1A403A4F8CC
:10274800B020C4F8A470C4F8C010A4F8C820C4F815
:10275800BC00A661E362CAE76FF01505C7E700BFD2
:102768001D9F0100C48A0100279F0100E09201001B
:10277800014B0360002070470C930100F0B40C4B30
:102788000C4E5F6A0C4BB34203D36FF08500F0BC6C
:1027980070475D68BD4209D31C693CB195F802C019
:1027A8000579AC4502D12346F0BC18472433EAE743
:1027B800D4270020F80C0020D40C00202DE9F04785
:1027C80005460E461746124CDFF84880DFF8489059
:1027D800444503D36FF08500BDE8F0876268D9F8F7
:1027E80024309A4212D3A36983B190782979884218
:1027F80005D13A4631462846BDE8F0471847527990
:10280800012A03D13A463146284698472434DFE75F
:10281800D40C0020F80C0020D42700202DE9F0412A
:1028280005460E4617460A4CDFF82880444502D371
:102838006FF0850009E063690BB92434F6E73A467E
:102848003146284698470028F7D1BDE8F08100BFF7
:10285800D40C0020F80C002010B5044613F02BFB14
:1028680010F1780F00D050B920460EF06AFD044AE6
:10287800D2F8C43023EA00030020C2F8C43010BDE7
:10288800D42700200022024B1A605A60704700BF0C
:102898008F28002070B50B4B0B4CA34201D30020AE
:1028A80070BD0022196A1E7F0439D5B2AE4201D824
:1028B8002433F2E7013211F832508542F5D1012074
:1028C800EEE700BFD40C0020F80C002008B509483A
:1028D8000378C3F341130A3350F823303BB100F1B6
:1028E800080200F110019847C043C00F08BD184600
:1028F800FCE700BFD427002004282DE9F14F044647
:102908000F46DFF89C9016D001282DD1DFF88C8077
:1029180098F8B93043B300F06FFD1F4D4D4520D2F4
:102928004FF0000AD5F820B02B7F5FFA8AF6B34241
:1029380004D82435F2E7FFF7A5FFE7E70BEBC60657
:10294800307913F0B8FA024630790EF0FAFCD8F86C
:10295800C430002A23EA0003C8F8C4300AF1010A87
:10296800E2DA002388F8B9300B4D4D4508D30B4BFC
:102978001B6A6BB13946204601B0BDE8F04F1847D5
:10298800EB681BB13A462146284698472435ECE7C0
:1029980001B0BDE8F08F00BFD40C0020D427002080
:1029A800F80C002073B5C4B263060D468DF80740D5
:1029B80007D02046FFF76EFF78B10D4B93F8BA00A9
:1029C80058B120460A4E55B108F086FAF3691BB192
:1029D80008200DF107019847012002B070BD08F0EA
:1029E800A3FAF369002BF7D009200DF10701F2E7EC
:1029F800D427002073B586781E4C8DF800600379C3
:102A0800427943EA0223ADF80230C378304603F036
:102A180003038DF804300EF094FCD4F8C430054656
:102A280018420BD0304600F0C9FC3046FFF714FFBF
:102A380014F0B6FE10B996200CF060FC684608F059
:102A480027FA10F1780F03D010B1002002B070BD42
:102A58009DF8000008F0A4FA10F1780F01D00028C2
:102A6800F3D10120D4F8C43084F8B9002B43C4F85A
:102A7800C430EBE7D42700202DE9F047A34E0446E5
:102A8800B3690F461546FBB9237803F01F03012BE2
:102A980000F09D80022B00F0048133BB94F9000004
:102AA8002A680028617834DA062912D008292BD040
:102AB800D9B901235170137096F8C3305B0043F005
:102AC8000103137002232AE198470028DCD1002073
:102AD8000DE06288100A011F0129844605D90728DC
:102AE80003D8716AD2B20C781CB96FF01500BDE832
:102AF800F0874E78664503D19A4200F00B81013386
:102B08002144F0E70B780AE196F8BA3013700123F4
:102B180005E101390829E8D801A353F821F000BFDD
:102B2800C12B0000F32A0000CF2B0000F32A00007D
:102B38004D2B0000F32A0000F32A0000F32A0000BE
:102B4800592B0000A07808F091F90028BFD0CCE7F5
:102B58006388756A63BBFFF795FE638886F8BA30A9
:102B6800F369002BB3D0032069499847AFE76B7826
:102B7800042B10D0052B11D0022B04D16F79638858
:102B8800BB4208BF01202B781D442B78002BEED1C7
:102B98000028AAD0DFE795F80380F4E76388BB42F2
:102BA800F1D1B8F1000FEED12846FFF723FFEAE78D
:102BB800FF270020B846E8E76388012B95D100235A
:102BC80086F8C33083E76388012B8ED1F8E796F83F
:102BD800BA30D5F800C0002B87D0756AA3882A467A
:102BE80094F804E0107800283FF47FAF5178022968
:102BF80004D192F80480F04500F293800244F1E792
:102C08008CF800208CF80120396060E7154494E0C6
:102C18000B2A7FF46AAF00274FF0FF08BA46C14677
:102C280006E06B78042B0FD0052B21D02B781D44A0
:102C38002B78002BF5D1F36913B15146072098473B
:102C4800002F7FF444AF50E795F80280A38895F8E9
:102C580003909845EAD163889945E7D1B8F1070F01
:102C68001CD806EB0803AA46012783F8BB90DDE7CA
:102C7800A3884345DAD1A3784B450AD0AF783846C4
:102C880000F09CFB3846FFF7E7FDB0FA80F77F09B4
:102C9800CCE72846FFF7AEFE0746C7E7AA46002757
:102CA800C4E794F900206378002A18DA002B7FF42F
:102CB8001CAF24792D6863060AD02046FFF7EAFD89
:102CC80000283FF412AF96F8BA30002B3FF40DAF4E
:102CD8002946204608F048F900236B70F2E6012BDC
:102CE80008D0032B7FF401AF6388002B7FF4FDAE7F
:102CF800012103E0618800297FF4F7AEA088FFF77F
:102D080051FE00287FF4E3AEEFE600BFD427002091
:102D18008E280020022829607FF4F4AE4B883B609F
:102D2800D5E694F9000062780028BFF671AF002A52
:102D38003FF466AF0A2A7FF4D8AE2A78002A3FF417
:102D4800D4AE697804297FF461AFA9788B427FF407
:102D58005DAF072B8EBF00239B1993F8BB308CF80F
:102D68000030D4E613B5164C237DF3B9E26801AB05
:102D78008020A16801920EF0F3FA019AA368134427
:102D8800A360E3689B1AE3606BB962B12369E288C8
:102D98009A4208DD94F8C82093FBF2F102FB113344
:102DA8000BB90123237502B010BD002380201A46F9
:102DB8001946237502B0BDE8104008F01BB900BFE2
:102DC800D4270020002330B585B002460D46019374
:102DD800002858D1002935D108220B460DEB0201F5
:102DE80013F082F8002804DA802008F075F805B09E
:102DF80030BD2A4C029AC4E903552260039ABDF8F3
:102E08000E30626004F13802A2609DF90820257531
:102E1800002A0ADB802B04D9802008F05DF8002006
:102E2800E3E713B1C4E90333E1E7FFF74FFD0028F7
:102E3800DAD0E28823699A42D4BFE260E360FFF700
:102E480091FFD4E7154C01ABD4E90215002D04DC41
:102E580013F04AF80028CADAC6E72A4613F044F8FD
:102E68000028D9DB019AA3681344A360E3689B1A7E
:102E7800E360002BBBD104F13803A360FFF726FD04
:102E88000028DCD1B0E78028B1D1044BDA68002AE9
:102E9800D5D11B7D002BD2D1A9E700BFD4270020B4
:102EA800044B93F8C3300BB113F02DB86FF00C003E
:102EB800704700BFD4270020054B064A58629A6223
:102EC800054A0020DA62054A1A63054A9A61704782
:102ED800D4270020812A000085270000252800002B
:102EE800C527000010B5084B93F8B84034B900F076
:102EF800E3F830B1FFF7E0FF204610BD6FF0770030
:102F0800FBE74FF0FF30F8E7D42700202DE9F34125
:102F1800414D04466F6A4FF0FF324FF0FF333F4890
:102F28000BF066FC95F8B860002E6ED13C482C6218
:102F3800E86108F079F907F067FF041E49DB00F043
:102F48007FFA041E45DB7B78012B61D1FB79002BCE
:102F58005ED0684685F8C830ADF802308DF8046058
:102F68008DF8006007F094FF041E32DB8027684666
:102F78008DF8007007F08CFF041E2ADB30462949C3
:102F880008F03EF9041E24DB3846264908F038F9D3
:102F9800041E1EDB244CDFF89480444520D3002017
:102FA80007F0FEFF041E14DBD5F8C430802043F080
:102FB8000103C5F8C43007F0F3FF041E09DBD5F898
:102FC800C430002443F48033C5F8C430012385F8A5
:102FD800B83012480BF086FC204602B0BDE8F081FC
:102FE8000026276A227FF3B29A4201D82434D4E714
:102FF80007EBC30257F83310107908F001F90136CE
:103008000028EFD04FF0FF34E3E76FF07704E0E7F4
:103018006FF01504DDE700BFD4270020E809002081
:1030280001290000CD2D0000D40C0020F80C002050
:1030380030B51F4B8BB005AA03F11005144618686C
:103048005968083303C4AB422246F7D11B781022D3
:103058002370002101A815F070FA122200211548EA
:1030680015F06BFA102101A813F0D8F800281BDD21
:103078000828B8BF082001AB09381A1800200D49E4
:1030880012F8013F0AAC04EB131403F00F032833C2
:103098006B4414F8144C13F8143C013008280C70D5
:1030A8004B7001F10201EBD102480BB030BD00BFFB
:1030B8002F9F01001D3D00202DE9F04F4FF0000B20
:1030C8006E4C87B000264FF0011AB0463546B1461F
:1030D80023782BB96A4B02349C42F3D1674833E01A
:1030E8006378052B1BD8DFE803F08E03C68E1D3BE3
:1030F800402304A88DF810B0ADF812308DF814B044
:1031080012F0C4FE40B1082304A8ADF8123012F042
:10311800BDFE08B1ADF812B0BDF81230E3712378E6
:103128001C44D5E7E378002BF9D1A3787BB108F1EB
:1031380001085FFA88F8F2E76B689C4209D02435E9
:10314800504B9D42F8D3002007B0BDE8F08F4E4D9C
:10315800F6E7AB68002BEAD0414620469847E6E7F9
:10316800002DF0D000222B7F9A42ECD2296AA07859
:1031780001EBC2010B79984201D00132F3E7012734
:10318800E078FBB200F003008DF81400207994F881
:1031980005C040EA0C20ADF8120094F9020000289E
:1031A80026DA4FF0010C07F110000CFA00F010EAD3
:1031B8000A0F24D143F080008DF8100004A8CDE94F
:1031C8000213019212F062FEDDE90121039BB0B9FE
:1031D8009DF8102012F0800FA2700A714FF00102C2
:1031E8001DBF1033DBB29A40BA404AEA020A96E79A
:1031F8000120B84010EA0A0F01D11846DCE7013770
:10320800102FBDD1B9E7032E1DD1FFF711FF0746D7
:1032180068B1FDF717F9102809D13846A31C07F142
:10322800100250F8041B904243F8041BF9D16FF0C8
:1032380002012378091BE21804EB5303D14213D58A
:103248000136F6B26BE7002EF1D1B9F1000F3FF469
:103258007AAFA4EB090389F80230C3F3072389F88E
:10326800033089F80480EBE702F801BC13F8010980
:1032780002F8020DE2E7A14651E700BF500C00201A
:10328800D40C0020F80C0020D40C0020094B00219D
:103298001A4610B51C78844205D15C681CB14823D5
:1032A80003FB012010BD0131042903F14803F1D1CA
:1032B8000020F7E7A02800202DE9F34150F8303C22
:1032C8000446103310F8346C10D1036950F8282CD8
:1032D800990739D5EAB913F0040304D11A461946F7
:1032E80030460EF03DF8002344F8303C54F8303CAA
:1032F80010330BD054E9097554F81C8C14F050FAAB
:1033080000284CD021462C4814F0B7FB02B0BDE889
:10331800F08150F82C1C01AB30460EF021F810B1AA
:103328006FF01503E0E7019A54F82C3C134444F875
:103338002C3C54F8283C9B1A44F8283C54F8243C6C
:10334800134444F8243CD1E750F82C1C01AB304618
:1033580007F0CCFE0028E3D1019D54F82C3C2B4407
:1033680044F82C3C54F8283C5B1B44F8283C54F89F
:10337800243C2B4444F8243C002DB4D0304607F0BC
:1033880059FFB5FBF0F303FB1055002DABD154F8F2
:10339800283C002BA7D0304607F0F0FEA6E744F8FB
:1033A800200CA4F118000BF00DFB002DAED0424606
:1033B80039463046A847A9E73825002010B54FF010
:1033C8002003EFF3118483F31288BFF36F8FFFF7A5
:1033D8005DFF50B14368103307D16FF08B0300F1E4
:1033E80034014360034814F048FB84F31188BFF3A9
:1033F8006F8F10BD3825002070B504250E4C4FF096
:103408002003EFF3118683F31288BFF36F8F63688D
:10341800103307D16FF08B030848636004F134015F
:1034280014F02BFB86F31188BFF36F8F013D04F175
:103438004804E4D170BD00BFA02800203825002032
:1034480070B50025094C0A4E3146204614F0E8FABA
:103458000122A4F118001146013514F05EFA042D7A
:1034680004F14804F0D1002070BD00BFD42800202A
:10347800C13200001FB507240294044C0194BDF822
:103488001840009411F0F5FC04B010BDBA080020F3
:1034980010B5084C86B024788DF8174001240294A2
:1034A8000DF117040194BDF82040009411F0E1FCDF
:1034B80006B010BDC108002000B5642889B08DF899
:1034C800070019D80E4B18221870002102A815F011
:1034D80034F80C4B002003930DF1070304930123E8
:1034E80002A9ADF8143005F0BFFD10F1800F08BF38
:1034F800002009B05DF804FB6FF01500F9E700BF84
:10350800C1080020AC9301002DE9F0410F4B05469E
:103518001C680E461746ACB14FF0FF324FF0FF3330
:103528000B480BF065F963683246D3F808802946E2
:103538003B462046C047044605480BF0D3F92046D1
:10354800BDE8F0816FF00104F9E700BFC029002051
:10355800D4090020002330B585B00546CDE90233F3
:1035680001904FF0FF334FF0FF320B480BF040F95A
:103578000A4B1C684CB9284600F082F804460648F5
:103588000BF0B0F9204605B030BD636820461B68D3
:1035980001A998472468EDE7D4090020C429002030
:1035A8001FB5CDE9010103924FF0FF334FF0FF3211
:1035B80009480BF01DF9094B1C682CB906480BF09B
:1035C80091F9204604B010BD636820461B6801A924
:1035D80098472468F1E700BFD4090020C4290020D7
:1035E8000022024BC3E90022704700BFC429002013
:1035F8000022024BC3E90022FFF7F2BFCC290020CA
:1036080070B505461A4C1B4EB44212D31A4E4FF0F1
:10361800FF324FF0FF3319480BF0EAF834687CB1F9
:10362800286854F8141C143CFCF7FAFEC8B1646905
:10363800F5E721682868FCF7F3FEA8B11434E3E73E
:1036480000226A61726805F114033AB9C6E90033C9
:1036580000240A480BF046F9204670BD13607360D9
:10366800F6E76FF01004F4E76FF01004F4E700BF1A
:10367800348A0100AC8A0100CC290020D40900203A
:10368800F8B506460025174C174FBC4208D3174B10
:103698001C682CB3143CB6B9E368E3B96469F8E76D
:1036A8002EB9E3685BB9284605461434EDE70022D5
:1036B800314620680DF0BBFE0028F2D1F3E79847A9
:1036C800002DF0D1F0E70022314620680DF0AFFE62
:1036D8000028E1D1E2E79847002D08BF0546DDE75D
:1036E8002846F8BD348A0100AC8A0100CC290020A4
:1036F80038B50C4D4FF0FF334FF0FF320A480BF04E
:1037080077F82B783BB9FFF773FF0DF0C6FE044638
:1037180010B901232B70002403480BF0E3F820466E
:1037280038BD00BF2F3D0020D4090020014B186888
:10373800704700BFE00300200822F0B589B00EF002
:1037480065F8CB6A002703930B6B0C4604934B6B0D
:10375800064605938B6BCDE901770693CB6B0097F3
:10376800079313466A46114610460DF05EFF314630
:10377800054630460DF059FF216B05440391616BF6
:1037880010460491A16B0591E16BCDE9061711462E
:103798000DF04BFF3146054430460DF046FF054419
:1037A800206ACDE904770090606A03970190A06AC7
:1037B8000290A06B0690E06B079030460DF035FF45
:1037C8000544606AD4F834C00090A06ACDF80CC0F3
:1037D8000190E06A0290A06B0490E06BCDE9050CC3
:1037E800206A079030460DF020FF0544E06ACDE9D5
:1037F80004770090206B03970190606B0290206A19
:103808000690A06A079030460EF033F8236B2D1A05
:103818000093636B30460193A36B0293E36B0393AE
:10382800636A0693E36A079308230EF022F8636B32
:103838002D1A0093A36B30460193E36B0293236A1E
:103848000393636A0493A36ACDE90537236B07934F
:1038580008230EF00EF8A36B2D1A0093E36B304685
:10386800CDE90137636A0393A36A0493E36A059376
:10387800636B079308230DF0FCFF2D1A10D40D4C31
:1038880035B90822314620460DF0CCFF01280FD06B
:1038980008232246314630460DF0EBFF2D1AEFE79C
:1038A800044A0823314630460DF0BFFE2D18F8D4DF
:1038B80009B0F0BD009401000449431E0F3013F80D
:1038C800012F8A5C83421A70F9D170474C9F01001E
:1038D800F0B50746264E8DB001AD0C460FCE0FC58C
:1038E8000FCE0FC596E8070085E807003846002F79
:1038F80039D0002C39D0381F0246214610344B7875
:103908000D781B0443EA0563CD7804312B4311F885
:10391800025C8C4243EA052342F8043FEFD10421BC
:10392800144C8A07036916D1C3F30742A55C1A0E23
:10393800A25C42EA0562C3F30725655DDBB2E35C7E
:1039480042EA054242EA032221F0030330336B4482
:1039580053F82C3C534050F8042F013153402C2984
:103968000361DED101200DB0F0BD2046FBE700BFAA
:10397800CC8A01004C9F01002DE9F04F0027036815
:103988009DB003934368DFF8B0A104938368DDE931
:1039980003460593C36806930369DDE905BE0793EB
:1039A800436908938369DDE9072C0993C36998463D
:1039B8000A93099B0193CD590CAB2DBA5AF8049B75
:1039C800DD514FEAF223A94483EAB213019D83EA49
:1039D80072634B4425EA020502EA0C0985EA0905E7
:1039E8002B44434486EA0B054FEA743888EAB40846
:1039F800254006EA0B0985EA090588EAB458A8446F
:103A0800043703EB0E05402F4344DE46DDF80480FF
:103A180000937FD14FF0100A464B0B9351460AF1A1
:103A2800010A1CAB0AF00F0703EB870757F8403C65
:103A380001F00F094FEAB34801F10E07093102936B
:103A480088EAF31801F00F011CAB03EB810103EBCB
:103A5800890907F00F0751F8401C03EB870759F84D
:103A6800403C57F8407C1944029B4FEAF74E88EADD
:103A7800D3088EEA774E8EEA972E414471444FEA76
:103A8800F52E0B9B05EA02088EEAB51E2CEA0507FF
:103A98008EEA756E87EA0807774453F804EF49F809
:103AA800401C77440F440B930199009B39444FEA1B
:103AB800733E84EA06078EEAB30E1F4004EA06083E
:103AC8008EEAB35E87EA08077744BAF1400F01EB44
:103AD8000B0E0F44B346CDF804C023D1039B0099C5
:103AE8003B440360049B0B444360059B2344836071
:103AF800069B3344C360079B73440361089B2B44B4
:103B08004361099B134483610A9B6344C3611DB0ED
:103B1800BDE8F08FB346CDF804C026469446009C15
:103B28002A4648E7944626462A46009C754600974A
:103B380074E700BFE8940100AC94010010B5044696
:103B4800C8B1702200210DF0B7FC0B4B0B4A0C4991
:103B5800C4E900230B4B0C48C4E902130B4BC4E91E
:103B6800040301200A4BA36103F17453A3F5230353
:103B7800A3F69243E36110BD85AE67BB67E6096AA9
:103B880072F36E3C3AF54FA57F520E518C68059B37
:103B9800ABD9831F30BFFFF7FDBF00BF114B124ADF
:103BA8002DE9F041D518013DB5FBF3F5DFF8448068
:103BB8005D430E4B074608EB0304013CB4FBF3F4EA
:103BC80003FB04540E1B3046094914F0A9FC701974
:103BD80042460021083E14F0B0FC7E6704F108005C
:103BE800BDE8F081010000000000000004000000B2
:103BF800AC8A010008000000044B99689869884263
:103C080003D003494FF080520A6070470C3B0020F4
:103C180004ED00E0154B9A6A12F0007F9A6A14BF0F
:103C28001E201D2012F0807F9A6A18BF1F2012F4F0
:103C3800801F9A6A18BF022012F4002F9A6A18BFD0
:103C4800212012F4802F9A6A18BF222012F4003F14
:103C58009A6A18BF232012F4803F9A6A18BF24205A
:103C68006FEA02426FEA12429A62704700ED00E082
:103C780010B5194B0246986A9C6A10F4805F14BF0D
:103C88001720162014F4006F9C6A18BF1820A4058A
:103C980009D5986B986A000404D51AB19A6A22F477
:103CA80000429A6219200C4B9A6A12F4806F9A6A41
:103CB80018BF1A20D2050CD49B6A13F4005F18BFF2
:103CC8001C20054A936A43F47F43936200230B70D8
:103CD80010BD1B20F5E700BF00ED00E010B51C4B40
:103CE8000246986A9C6A10F0100F14BF1120102029
:103CF80014F0080F9C6A18BF1220A40709D5586B46
:103D0800986A000604D51AB19A6A22F080029A626B
:103D180013200F4B9A6A12F0010F9A6A18BF1420E9
:103D280012F0200F9A6A18BF1520D40658BF9B6A54
:103D3800074B9A6A920642BF5A6A22F400525A62A4
:103D48009A6A42F0FF029A6200230B7010BD00BF0E
:103D580000ED00E070B5444B06465B6800259CB05A
:103D6800C3F3080385F31188BFF36F8F02F07F4018
:103D7800B0F17F4F11D102F00C0008280DD01007C8
:103D88004CBF0E4601250022033B8DF80720032B6C
:103D980005D8DFE803F01E5C60592E46F3E70024DF
:103DA8009DF807309BB96822314602A814F0B8FB89
:103DB800099B002D53D0C3F3080222B96FEA53239D
:103DC8006FEA43230993204602A90EF0A3FE1CB014
:103DD80070BD254BDA6A9107E1D4DA6A002ADEDB86
:103DE800DA6A5200DBD55A69B16942F480725A61C5
:103DF800BFF34F8FBFF36F8F5A6931F8021C22F45B
:103E080080725A61BFF34F8FBFF36F8F4DF6027206
:103E1800914209D09A6AD2B242B101200DF107014C
:103E2800FFF75CFF0446BBE73468B9E79A6A12F407
:103E38007F4F05D001200DF10701FFF719FFF1E7CA
:103E48009B6AB3F5803FAAD3FFF7E4FEEAE70020B8
:103E58000DF10701E4E700200DF10701EDE723F478
:103E6800FF7323F00103ADE700ED00E0044B5A694E
:103E780042F010025A615A6942F480625A617047EE
:103E880000ED00E0EFF30880EFF3098101B5724619
:103E9800FFF760FF01BD00BF002320210348C218BF
:103EA8000133452B82F80013F9D1704700E100E097
:103EB800FEF788F9202080F3118808484FF4006144
:103EC800401880F30988EFF314800221084380F337
:103ED8001488BFF36F8F00F0EDF80000D860002061
:103EE800BFF34F8F0549064BCA6802F4E0621343DB
:103EF800CB60BFF34F8F00BFFDE700BF00ED00E0D0
:103F08000400FA05084B9B6883420BD1EFF3058345
:103F180043B1064B5A6842F080525A605A6A22F4FA
:103F280000425A620BF00ABA0C3B002000ED00E098
:103F3800094A0A49936809689867D96708494B6824
:103F480043F080534B60002383F31188BFF36F8FD6
:103F58009368D86F704700BF0C3B0020849B01001A
:103F680000ED00E025498A6882F8C1E04FF0300092
:103F78001044EFF3098C80E8F01F1EF0100F03D1F6
:103F880002F1800080EC108A202080F31288BFF3B1
:103F98006F8F1B4F4FF000668A698A603E604FF052
:103FA800740414192068174C206092F9C1E0906FCE
:103FB8000023936780F311881EF0100F03D00023AD
:103FC800E1EE103A03E002F1800090EC108AEFF382
:103FD800148323F0040383F31488BFF36F8F02F173
:103FE800300090E8F01F8CF3098802F1000004B556
:103FF8000EF0A1FDBDE80440704700000C3B002016
:1040080004ED00E0D42900201EF0040F0CBFEFF3EC
:104018000880EFF30980816911F8021C0229FFD09A
:1040280001B50EF079FD01BD40B2002807DB012380
:104038004109034A00F01F00834042F821307047CD
:1040480000E100E040B200280CDB012206494309E8
:1040580000F01F008240203341F82320BFF34F8F28
:10406800BFF36F8F704700BF00E100E0054B4209C6
:1040780053F82220012300F01F0003FA00F010403B
:10408800704700BF00E100E040B2002801F10101E3
:10409800ACBF00F16040064B4FEA4111C9B2ABBF5B
:1040A80000F5614000F00F0080F8001319547047C4
:1040B80014ED00E0144A08B5144B22F07F029A6010
:1040C800BFF34F8FBFF36F8FD3F8882022F47002AD
:1040D800C3F88820D3F8882042F4A002C3F88820C7
:1040E8004FF04042C3F83422BFF34F8FBFF36F8FB6
:1040F8000023E1EE103A0AF007F90BF095F9FFF703
:10410800CBFE0AF04BF900BF0000000000ED00E014
:1041180042F8203C009B0D4942F81C3C019B21F0D1
:10412800010142F8183C029B42F8081C42F8143C72
:104138004FF0807342F8043C002383674FF47D43BB
:10414800203A0265C0F8C030704700BF151E000055
:10415800114B9B6883421BD1EFF30580C0B94FF028
:104168002002EFF3118182F31288BFF36F8F1A7B5D
:1041780022F002021A73EFF3148323F0040383F38B
:104188001488BFF36F8F81F31188BFF36F8F704767
:104198006FF01500704700BF0C3B00200023E1EED4
:1041A800103AEFF3148323F0040383F31488BFF366
:1041B8006F8FBFF36F8F0A4B446F9860094B1C6079
:1041C800436E83F30B88104681F30988002163B698
:1041D80081F31188BFF36F8F00220023FDF716FECD
:1041E8000C3B0020D4290020014910220A607047A6
:1041F80010ED00E072B6404080F31188BFF36F8F76
:1042080001B5FDF79BFF002802D0BFF34F8F30BFE9
:10421800BDE8014062B6BFF36F8F704772B6494080
:1042280081F3118801B5FDF789FF002802D0BFF39B
:104238004F8F20BFBDE8014080F3118862B67047F8
:1042480001B5EFF30580A0F110004FEAC000044962
:10425800014409C99847BDE80140024908470000E0
:10426800C0870100013C00001FB5094C094A2346DC
:104278000121094800F0EAF800230393074B0121C4
:10428800E41A01A80193029400F0EAF804B010BD02
:104298000000072000000020AC950100F80C002069
:1042A80010B50C7A0B6804F01F0223F01F031A43A1
:1042B800CB68640923F01F03054943EA440343F02C
:1042C8000103C1F89800C1F89C20C1F8A03010BDC6
:1042D80000ED00E02DE9F04F0F46144606464FF07A
:1042E80000084E4D85B0B84580F29480D6F8049009
:1042F800B9F1000F36D0B9F11F0F40F2898019F0DB
:104308001F0F40F08580D6F800A01AF01F0F7FD14C
:1043180050460EF014FC834609EB0A0001380EF0F3
:104328000EFC834574D11BF1160F71D05C456FDD0F
:10433800C5F898B0D5F89C10C5F898B0D5F8A03055
:1043480021F01F0143F01F0AD6E900321A449942AE
:1043580002F1FF391ED1CA4508D131465FFA8BF008
:104368000EF0F6FB08F101080C36BCE73146C5F83B
:1043780098B0D5F89C3022F01F0203F01F031343B6
:10438800C5F89C30E0B20EF0E3FB10F1160F3FD0F9
:10439800441CE7E7C5F898B0D5F8A020013B23F006
:1043A8001F0302F01F021343CA453146E0B2C5F8A5
:1043B800A030E8D00EF0CCFB10F1160F28D0C5F8CD
:1043C80098B0D5F89C209DF808300AF1FF3A62F3BE
:1043D80004038DF80830D5F8A0309DF808205B0854
:1043E80063F347128DF80820D6E90032134400938E
:1043F80023F01F03411C5344A3EB0903C8B223F065
:104408001F030728039303D86946FFF749FFBFE74F
:104418006FF01504204605B0BDE8F08F00ED00E010
:104428000522044BC3F89420BFF34F8FBFF36F8F5F
:10443800704700BF00ED00E0BFF35F8F0022024B22
:10444800C3F89420704700BF00ED00E010B5034C9E
:104458002278FFF73FFF207010BD00BF303D0020DD
:104468002DE9F74F294D8A4606464FF00008AB461E
:10447800274FD0451BDAD6F80490B9F1000F3FD08A
:104488003168084601910EF05AFB0199044609EB80
:10449800010001380EF053FB84424FF014021D4B0B
:1044A80008D002FB08F36FF015024BF8032003B0A5
:1044B800BDE8F08F14F1160F2C60F8D01978A142DE
:1044C800F5DD02FB08B0C7F89840C7F89840D7F860
:1044D8009C4000F10801007B64F304000871D7F8E0
:1044E800A0000C79400860F347140C71D7F89C10B1
:1044F80021F01F016960D7F8A01021F01F01296180
:1045080008F1010814350C36B3E700BFD82900209C
:1045180000ED00E0303D0020F0B5384D87B02C6844
:10452800082C67D80020FFF787FF354B354AC3F8BA
:10453800C02084420DD1344D01A82C70FEF718F923
:1045480000240646314FA6420AD1FFF769FF002032
:104558004EE0696801EB0011FFF7A2FE0130E8E7C1
:104568000199200101EB0413DA683A40B2F5001F03
:1045780022D0B2F5800F2CD0B2F5801F36D15A6800
:104588009B680958013B22F01F0003440120844620
:1045980023F01F0340EA4C108DF810002878CDE96D
:1045A80002210728059321D802A9FFF779FE2B7865
:1045B800013401332B70C6E75A689B680958013BE0
:1045C80022F01F0003444FF0020C012023F01F03C8
:1045D800E0E75A689B680958013B22F01F00034432
:1045E8004FF0000C022023F01F03D3E76FF01500F3
:1045F80007B0F0BD4FF0FF30FAE700BFB8950100F3
:1046080000ED00E0AAFF4400303D00200000F0FF6C
:1046180008B504480CF01EF8404080F311884FF0AC
:10462800020002DF4CA0010008B50649064821F047
:104638000701C1F1005202F5E0220CF06DFA0020EA
:1046480008BD00BF13950020EC29002010B50C46CA
:10465800014608480CF0B4FE50B1022C08D150F8BD
:10466800083C2BB11B691BB1BDE810400068184716
:1046780010BD00BF102A0020F8B590F9003004469C
:10468800002B0D46174602DB6FF01500F8BD40F20F
:104698000162038823F0E0039BB29342F4D1468879
:1046A80001791248360A0CF07EFE0028ECD0212E43
:1046B80004D0222E0FD06FF08500E7E70368E18869
:1046C8005B685B6813F8092F914294BF29602A60E0
:1046D80000203B60DAE7E38850F80C2C9A4294BF3C
:1046E8002A602B6050F8103CF2E700BF102A002027
:1046F8002DE9F04104460E460179144817460CF09E
:1047080052FE0546D0B194F900200068002A63786B
:104718000DDA012B16D155F8083C9BB11D688DB1F7
:104728003B4632462146AC46BDE8F0416047092B7E
:1047380008D155F8083C2BB15D68F0E76FF012001E
:10474800BDE8F0816FF08500FAE700BF102A00206D
:1047580010B50C4601460F480CF01AFE50B1611E08
:10476800052907D8DFE801F0070603070D0F012325
:1047780000F8043C10BD002300F8043C00F8033C9A
:10478800F8E70123FAE710F8033C002BF2D00023E6
:10479800F4E700BF102A002010B50469A3600023C5
:1047A800C4E900126361064B2061596804F11402E0
:1047B80011B9C3E9002210BD0A605A60FBE700BFC7
:1047C800102A0020F8B5514ED6E8AF4F14F0010476
:1047D8004CD04F4F4F4C504D3A4621464F480CF065
:1047E8007DFEC0B320222946204613F04BFE002848
:1047F800F2D000274FF0FF324FF0FF33012000F0D6
:10480800F7FA00F10C0502210446284611F0DBFAFC
:104818003E230370422301214370284611F0D3FA46
:10482800082341210370284611F0CDFA054600F807
:10483800017B97B14022002113F07FFED6E8EF3FBD
:1048480023F00103C6E8E23F002AF7D12046BDE87D
:10485800F84001F033B81F27CCE730490EF000FAD2
:10486800203105F121000EF0FBF9E7E7D6E8AF3F6C
:104878009B0749D5264929480DF0EDFC00280EDB99
:10488800D6E8AF3F2349244813F0040F01F1200272
:104898001F4B18BF014610460CF06DFE04464FF042
:1048A800FF324FF0FF33012000F0A2FA00F10C07AD
:1048B80002210546384611F086FA3E23037022236A
:1048C80001214370384611F07EFA09232121037033
:1048D800384611F078FA034601307CB91F22FF21CF
:1048E8001A70202213F029FED6E8EF3F23F00203C6
:1048F800C6E8E23F002AF7D12846A8E70022074980
:104908001A700EF0ADF9EFE7F8BD00BF182A0020C5
:10491800E4950100313D002093A00100513D0020A5
:1049280070B506460D461A4CD4E8AF3FDA0701D5F4
:104938000C2070BD012929D8D4E8EF3F43F00202CA
:10494800C4E8E12F0029F7D19B07F1D4314611487B
:104958000EF086F9104806F120010EF081F965B1D4
:10496800D4E8EF3F43F00403C4E8E23F002AF7D15C
:104978000A4800F0FBF90020DBE7D4E8EF3F23F01A
:104988000403C4E8E23F002AF2D0F6E71220D0E799
:10499800182A0020513D0020713D0020EC03002022
:1049A80070B5067E044676B942F22602C3681D88B1
:1049B80095423ED00FD842F20102954248D042F2C9
:1049C80025039D4213D0274B2046BDE87040D3F8FD
:1049D80064315B69184742F25E039D42F3D10321BB
:1049E8000C3011F018FAE06890F8401027E0032125
:1049F8000C3011F010FA204605F066FE1A4BD3E889
:104A0800AF2F920707D50C26314642F225000EF04B
:104A180003F9002070BDD3E8EF2F42F00101C3E88D
:104A2800E01F0028F7D1D307EDD4104800F09EF915
:104A3800EAE703210C3011F0EEF93146E068FFF7A0
:104A48006FFF0646204605F03FFE31462846DEE762
:104A5800DA7802F07F02DA701A7922F001021A710C
:104A6800B1E700BF00000020182A0020EC03002056
:104A78002DE9F341044617469846174DD5E8AF3F50
:104A8800DA0727D520B96FF0010002B0BDE8F08140
:104A980001A90CF0F0FC11490246204613F002FD72
:104AA8000028F0D1D5E8AF3FC3F3C0061B0711D4E7
:104AB800A5F1D404072221464046B847062887BFF7
:104AC8000723B0FBF3F045F8D46CE67194BFC4F843
:104AD8000360E0710020D8E7D4000020799D010030
:104AE8002DE9F04188B0DDF838809C795D791E7930
:104AF800DF7893F802C093F801E01B78B8F1000F53
:104B08000ED0CDE90638CDE904CE1346CDE90267CB
:104B1800CDE90045084A0AF031FF08B0BDE8F08148
:104B2800CDE905E3CDE9037C1346CDE90156034AF7
:104B380000940AF023FFF0E7B3A00100D7A001001A
:104B480070B504461E4615468CB0A2B129B10A4676
:104B580002A804210BF003FD02A900912B4622466E
:104B6800242103A8FFF7BCFF3146109A03A8FEF7DB
:104B7800CBFC0CB070BD03462421044A03A80AF0FC
:104B8800FDFE0028F0DA6FF01500F2E7F8A001004A
:104B980007B5064B0648DA79C2EBC202009200223A
:104BA8001146FFF7CDFF03B05DF804FB00000020BD
:104BB800799D010030B5044615468DB092B129B1F2
:104BC8000A4602A804210BF0CAFC02A900912B4650
:104BD8002246242103A8FFF783FF03A80CF023FC37
:104BE8000DB030BD03462421044A03A80AF0C6FECE
:104BF8000028F2DA6FF01500F2E700BFF8A0010014
:104C080007B5009313460A4601460348FFF798FF85
:104C180003B05DF804FB00BFAEA201000A460146DE
:104C28000148FFF7C7BF00BFAEA2010007B5009358
:104C380013460A4601460348FFF782FF03B05DF8B2
:104C480004FB00BFA8A2010007B5009313460A465B
:104C580001460348FFF774FF03B05DF804FB00BF8B
:104C680099A201000A4601460148FFF7A3BF00BF09
:104C780099A2010007B50022034600910348114696
:104C8800FFF75EFF03B05DF804FB00BFA0A20100C0
:104C980008B5024809F076FF002008BDFC03002093
:104CA80070B5154CD4E8AF3F13F0010F254616D068
:104CB80014F8CD3CA4F1D4069BB1D4E8AF3F5A0711
:104CC80001D400F039FED5E8EF3F23F48032C5E87F
:104CD800E12F0029F7D1DB0301D5FFF7D9FF002029
:104CE80009E001F0D9F830B9F379002BE5D101F0EA
:104CF80017F90028E1D070BDD400002007B5009353
:104D080013460A4601460348FFF71AFF03B05DF849
:104D180004FB00BFEDA201000A4601460148FFF767
:104D280049BF00BFEDA2010030B50024094D0A4B70
:104D380085B028460293039412F0B0FE02AB2846D1
:104D480000934FF4A3620A23044909F021FF204687
:104D580005B030BDE0120020FEA00100E0470020B1
:104D68000146014809F08ABFE012002001460148C7
:104D780012F083BEE0120020037830B5012B13D067
:104D8800022B27D07BB90A46184B03F1100453F8BD
:104D9800045BA34242F8045BF9D11B781370438883
:104DA8004B731B0A8B7330BD0A46104B03F110047A
:104DB80053F8045BA34242F8045BF9D11B781370E3
:104DC8004368C3F307224B731B0CCB731B0A8A730C
:104DD8000B74E8E700F1100350F8042B984241F8EF
:104DE800042BF9D103780B70DDE700BF07A10100A0
:104DF800012838B505460CBF0648074810F083FF60
:104E0800044620B101210C3010F0D9FF2576204648
:104E180038BD00BFA00B00201C0B0020024600205C
:104E280070B50B460A49D1E8EF4FC1E8E50F002DF0
:104E3800F9D124B9BDE870400120FFF7D9BF01219D
:104E48002082217604F10C0010F0B9FF204670BDD5
:104E58004001002070B504460F2C0D461046194637
:104E680005D80D2C0DD9BDE87040FFF7D7BF132C1E
:104E780007D10C4810F047FF044638B900242046F3
:104E880070BD02460B4645B10748F3E701210C30D7
:104E980010F095FF01232376F1E70120BDE870406B
:104EA800FFF7A6BF240C0020740B002038B5C36898
:104EB800B3F801401B7893B90F21204601F040FF59
:104EC800054668B96FEA045005236FEA1050084A8E
:104ED80032F8021B09B922F8020C013BF8D138BD9F
:104EE800012101F06FFE2846BDE838400EF0F7BDFD
:104EF8004C3B0020F8B506460F4602F067F804461A
:104F080040B18378012B24D013210EF027FE2046D0
:104F18000EF0E5FD3946304605F074FA054628BB23
:104F28003946304604F060FA144B1B6823B31C68FA
:104F380004B10C3C53F8043C13B139463046984749
:104F4800D4B12346E4689B68A4B10C3C002BF4D18F
:104F5800F7E70023D0F8B8501321C0F8B8300EF0A6
:104F6800FDFD20460EF0BBFD002DD3D0284610F0E5
:104F7800B3FDD5E7002BE0D1F8BD00BF782A0020AB
:104F880010B5084C0146052294F86F0002F042F86B
:104F980038B994F86F000422BDE81040024902F0C5
:104FA80039B810BD0000002079A0010010B501211A
:104FB80004460C3010F037FF2146BDE810400A23A4
:104FC800014A00780DF095BF2C970100F8B53048DC
:104FD80010F0B6FE0446002859D0037E012B35D0C8
:104FE800032B02D1038A032B02D805F06DFB23E0C3
:104FF80004210C3010F017FF47880688204605F07A
:10500800BDFA244DC6F30B0325F81030238A204639
:10501800BB42EAD105F0B2FA0F2135F8100001F0D1
:105028008FFE054608B92046DFE72146320B0EF011
:10503800F5FC28460EF053FD174BD3F8443133B333
:10504800BDE8F8401549164812F017BD038A012B30
:10505800CBD902210C3010F0E6FE054600780DF0A1
:10506800B0FE83070CD440F668230E4A0E490F4859
:105078000BF0EFFE404080F311884FF0030002DF91
:10508800062321460A4A28780DF033FFCBE7F8BDFE
:1050980044010020563B0020000000209804002016
:1050A8009014002018A101004CA101007AA1010070
:1050B800FC960100F8B50746907A0E46144605F0AE
:1050C80055FA284B83424BD1204605F057FA0C235A
:1050D800254D03FB00504388BB4241D1234FD7F8ED
:1050E800400120B105F0F0FA0023C7F8403120460E
:1050F80005F044FA0C2707FB005043689BB196B9AA
:10510800204605F03BFA012107FB00504268D2E92E
:105118000003127A03F01F07B9405B09D2B100EB14
:1051280083000DF079FE204605F028FA0C2707FBCE
:1051380000508368A3B1204605F020FA78432E5426
:10514800204605F01BFA07FB0055A868BDE8F840A3
:1051580009F038BCC94300EB83000DF0E1FEE2E73B
:10516800F8BD00BFF80B00201C2A0020000000201A
:1051780038B5042104460C3010F055FE4578017806
:1051880022464088FFF796FF25B1BDE8384002481F
:1051980009F018BC38BD00BF2801002038B503212C
:1051A80004460C3010F03FFEE36805782246197873
:1051B800B0F80100FFF77EFF25B1BDE8384002488E
:1051C80009F000BC38BD00BF280100202DE9F047D8
:1051D8003C4FDFF80C8107F11409FB6848466FF370
:1051E8009433FB6001F09CFC451C4FF0FF324FF0FC
:1051F800FF33294633480AF011FB60B140F6E52336
:105208004246314931480BF024FE404080F3118872
:105218004FF0030002DF2B4E15B909F0D3FFDCE78E
:10522800F368C3F38633042B42D1337B002B42D17E
:1052380000220023264810F06BFD044660B940F6B2
:1052480077234246234921480BF003FE404080F370
:1052580011884FF0030002DFDFF888A04FF0FF321B
:105268004FF0FF331C4809F0D3FBDAF8400120B1B6
:1052780005F02AFA0023CAF84031204610F079FDDB
:10528800CAF840012046FFF78BFB88B1124809F0A5
:1052980099FB204605F072F90C22104B1F2102FBE6
:1052A800003022464088FFF705FF204605F00CFA3B
:1052B8001436013DB0E7012BFAD13069383801F0D6
:1052C800CFFFF5E70C04002097A101007AA10100A7
:1052D8004C010020A0A10100280100201C2A002068
:1052E80018A101000000002010B5C1E900239DF8B5
:1052F80008300C460B7205F041F90C22024B02FBF8
:1053080000335C6010BD00BF1C2A00202DE9F04767
:105318004FF0FF324FF0FF33064617480F4610F0A4
:10532800F2FC4FF00008044600F10C0A0121504637
:1053380010F045FD204684F8188005F01FF94FF05D
:105348000C090E4D09FB00504680204605F016F961
:1053580009FB0050C0F80880204605F00FF909FB4A
:10536800005503215046C5F8048010F02CFD068036
:1053780087702046BDE8F087F80B00201C2A002023
:1053880038B505460C4619B9FFF7C0FF044698B171
:1053980040F635439D4209D12046FFF701FB0546FB
:1053A80040B1204605F090F9284638BD214604480A
:1053B80010F0DDFC0025F7E76FF06805F4E700BFA3
:1053C8004C010020F8B5044605F0D8F81D4B33F819
:1053D8001050A07A05F0CAF8214612F090FA1A4B3C
:1053E80093F88A309B062CD50F21284601F0A8FC9B
:1053F80038B3437B073B012B03D9BDE8F8400EF0D7
:105408006EBB0EF06CFB052140F63540FFF77EFFC2
:105418000446B0B100F10C070121384610F0D3FC66
:10542800012604210670384610F0CDFC00230580C3
:105438008670C3702146BDE8F84040F63540FFF756
:105448009FBFF8BD563B0020000000202DE9F04129
:10545800074615460C4686B021B9FFF757FF0446A4
:1054680000284DD001220021684612F056FA204645
:1054780005F084F80C23DFF8A88003FB0080C0F84F
:1054880008D0204610F075FC0146204810F06FFC4B
:105498004FF4A0220023684609F0BAFA064688B1FC
:1054A8004FF4A9731A4A1B491B480BF0D2FC324629
:1054B80039461A480BF0CDFC404080F311884FF074
:1054C800030002DF204605F059F80C23584318F86A
:1054D80000606EB1204605F0F7F8092E13D00D2EA6
:1054E8000CBF6FF00B006FF0040006B0BDE8F08150
:1054F80015B12C600020F8E7204605F0E5F8F9E73B
:105508006FF06800F1E76FF06E00EEE74C010020E5
:1055180018A1010097A101007AA10100A4A101002E
:105528001C2A0020F7B5144B054693F99B300C460E
:10553800002B1DDA14B9204603B0F0BD082C4FF03B
:10554800000142F2180001AA264628BF0826FFF7E4
:105558007DFF0028F0D1019F3246F96828460131C5
:1055680012F0DEFF384605F0AFF83544A41BE1E73A
:105578006FF08500E0E700BF000000202DE9F04152
:105588007C4AB0F8018005460023104688B048F4EC
:10559800704132F8024BA1421FD10022012720F8A6
:1055A800132000F0CDFA2C78E4B13C2C3AD100F06D
:1055B800C9FD6FF0800110300DF0B2FC0020FFF73C
:1055C800DFFC054670B30473002101F0FBFA28469E
:1055D80008B0BDE8F0410EF082BA0133052BD8D1EE
:1055E8000027DEE7EB782E1D012B08BF624B304603
:1055F80008BF93F86F400DF0E0FB3146A8B106A84C
:105608000DF0D0FB05F111010DF111000DF047FC73
:1056180001238DF81030EB78012B12D0132140466E
:105628000DF02AFE08B0BDE8F08120460DF0E3FF3A
:10563800014606A80DF038FC314604A80DF034FCEC
:10564800E9E706A8FFF79CFCEB780446012B0AD192
:1056580000F078FD06466FF0800110300DF060FC18
:1056680030460EF04AF9002CD8D020460022B5F872
:10567800013006A920F8883B0DF016FCB5F8173064
:10568800A4F89E30B5F81930A4F8A430B5F81B304A
:10569800A4F8A630EB782273012BE37015D104A986
:1056A80004F18F000DF000FC00F04CFD217A324A25
:1056B800C1EBC101114404F196000DF0F5FBD2F8DD
:1056C800E4305D0601D500F0D3FE0721204601F045
:1056D80079FA1FB10121204601F074FA20460EF034
:1056E80034FA637B072B40D1231DD3E8AF3F13F473
:1056F800805F214E18D1E3781BB196F8D83018078F
:1057080012D5022142F21600FFF700FE054658B1F5
:1057180002210C3010F057FB238800220380294611
:1057280042F21600FFF792FE96F8D930D90706D54F
:105738000021022320461A4600910DF0D6FD96F866
:10574800D8309A0611D5D6F864319B689B070CD5DA
:105758000DF10E0103A80DF077FD30B92046BDF814
:105768000E20BDF80C100DF0A2FD20460EF0B7F982
:1057780058E700BF4C3B00200000002000B5C1687E
:1057880089B00B7801A88DF80030B1F801300431E8
:10579800ADF8013011F8013C8DF80330B1F807304D
:1057A800ADF81730B1F80930ADF81930B1F80B3051
:1057B800ADF81B304B7B8DF81D300DF075FB07499C
:1057C8000DF10B000DF06BFB0DF111000DF067FBF7
:1057D8006846FFF7D3FE09B05DF804FB8DA0010011
:1057E80037B504460D468DF80700A0B929B1072240
:1057F80028460A4912F046FE40B9002008490DF132
:10580800070204F043FD002003B030BD29462046BE
:10581800FFF770FBF7E76FF01500F5E780A00100D0
:10582800952E010029289ABF014B185C0920704762
:10583800F5A101002DE9F041044600F10C063046BF
:1058480010F001FBB4F810800546B8F1010F04D838
:105858002046BDE8F04104F037BF3046022110F081
:10586800E2FA074600780DF0ACFAC20706460CD4F7
:1058780040F694630D4A0E490E480BF0EAFA404090
:1058880080F311884FF0030002DF052321460A4AFE
:1058980038780DF02EFBB307DAD56369A4F81080C9
:1058A80013FA85F5E560BDE8F08100BF18A1010095
:1058B800D0A101007AA10100D496010038B5037E79
:1058C8000446012B0AD0032B16D121460D4810F0AF
:1058D80021FA0D490D4812F0D0F80BE0C36818788A
:1058E8000DF06FFAC207054602D52046FFF7A2FF62
:1058F800AB07EAD4002038BD04F0E6FE6FF01500CF
:10590800F9E700BF4401002098040020901400200B
:10591800084A0346D2F8640130B9D96839B15969DF
:1059280029B1C2F8643170476FF0770070476FF0A3
:105938001500704700000020042101480DF06CBAE2
:10594800D400002010B5FAF787FD034B1B6813B18C
:10595800BDE81040184710BD342A002070B5314DFD
:105968000646D5F8643188B0002B54D06FF0020198
:1059780005F1D4000DF0D4FA01210DF04DFAC3075A
:105988004CD40DF0AFF90446002841D1264B1E60D7
:10599800012205F59470114611F0BFFF05F5A670B8
:1059A80011F096FF00220023CDE906236FF00803CB
:1059B8004FF48062CDE90243CDE900441B4B1C49FA
:1059C80004941C4808F0EAFD1B491A4811F0EEFE41
:1059D8001A4812F063F86FF0070340F69802184966
:1059E8001648009409F0D4F81649144811F0DEFE60
:1059F800D5F86431DB689847044648B926B908B039
:105A0800BDE87040FAF728BD05F1C40009F0BAF8FE
:105A1800204608B070BD6FF01204F9E76FF0770404
:105A2800F6E700BF00000020342A0020D55100000E
:105A3800F84C0020C8130020E9A1010090140020B0
:105A4800F8500020EFA1010000487047D09D0100E8
:105A5800F8B506460024094DEF79E3B29F4202D813
:105A68006FF0010007E0294630460DF001FD0735CB
:105A7800631C08B12046F8BD1C46EEE70000002074
:105A880037B504460D46B9B1284616490DF0F0FC65
:105A980090B929461448C4EBC40420440DF0F8FC1E
:105AA80012480DF0EDFC430703D5FFF7F1F80DF0B0
:105AB8001BF9002003B030BD68460DF065F90028D9
:105AC800F8D16846FFF7C4FF0028F5DA064BC4EBA7
